:100000000C94A5000C94C4000C94C4000C94C4007F
:100010000C94C4000C94C4000C94C4000C94C40050
:100020000C940F050C94C4000C9446030C94C4006B
:100030000C94DF020C94C4000C94C4000C94C40013
:100040000C9464020C94C4000C94C4000C94C4007E
:100050000C94C4000C94F9040C94C4000C94C400D7
:100060000C94C4000C94C4000C94C4000C94C40000
:100070000C94C4000C94C4000C94C4000C94C400F0
:100080000C94C4000C94AC080C94C400B001A601FC
:10009000AF01A601AF01AF01B001B001AF01AF01E7
:1000A000A601AF01A601B001ED08C408C408C40848
:1000B000C408C408C408C408ED08C408C408C408B7
:1000C000C408C408C408C408F708C408C408C4089D
:1000D000C408C408C408C408C408C408C408C408C0
:1000E000C408C408C408C408F708C408C408C4087D
:1000F000C408C408C408C408C408C408C408C408A0
:10010000C408C408C408C4080E09C408C408C40844
:10011000C408C408C408C4081209C408C408C40830
:10012000C408C408C408C408C408C408C408C4086F
:10013000C408C408C408C4082009C408C408C40802
:10014000C408C408C408C408DE0811241FBECFEFC9
:10015000D0E1DEBFCDBF11E0A0E0B1E0E2E5FFE11C
:1001600000E00BBF02C007900D92A636B107D9F789
:1001700022E0A6E6B1E001C01D92AA32B207E1F783
:100180000E94380B0C94A70F0C94000087B3876073
:1001900087BB8DB180658DB9709A089587B78160EE
:1001A00087BF83B7856083BF80B7886080BF0895AD
:1001B0008CE990E09BBD8ABD87B7806187BF8EB513
:1001C0008B608EBD089587B7806487BF85B58363D4
:1001D00085BD85B5886485BD0895EBE8F0E0808134
:1001E00081688083EAE8F0E080818A608083139AE6
:1001F0008FE790E09093870080938600089587B101
:10020000856487B986B18F6886B9369A0895CF9389
:10021000DF93AC019C013695279536952795369549
:100220002795A5ECB0E20E944C0C929582958F70B8
:1002300089279F708927FC01E050FF4FC0819A01F8
:100240003695279536952795ABE7B4E10E944C0C7F
:10025000FC01F695E7959F01ADECBCEC0E944C0CBF
:100260009695879596958795969587959C01220FEB
:10027000331F880F991F880F991F880F991F820FAE
:10028000931FE81BF90BE050FF4FD0819A010E94A9
:100290004C0CFC01F695E795F695E795F695E795F4
:1002A0009F010E944C0C96958795969587959695FB
:1002B00087959C01220F331F880F991F880F991F64
:1002C000880F991F820F931FDF01A81BB90BA05045
:1002D000BF4F8C919F01220F331FEE0FFF1FEE0FB8
:1002E000FF1FEE0FFF1FE20FF31F4E1B5F0BFA0104
:1002F000E050FF4F908120917001309171012330C7
:10030000310559F090930D0180930E01D0931001A7
:10031000C0931101DF91CF9108958F772091000153
:100320002C13F0CFC0910A01EDCF24E0829FC001D1
:100330001124E62FE82B8E2F90E0FC013197EE3050
:10034000F10568F4EA5BFF4F0C94430C8091860042
:10035000909187000497909387008093860008957A
:1003600080918600909187000496909387008093F7
:100370008600089524E0829FC0011124862B2091DD
:100380007001309171012130310509F040C0E2E780
:10039000F1E02091700130917101232B79F02091CF
:1003A0007001309171012130310541F020917001CF
:1003B000309171012330310569F10895873079F169
:1003C0008D30A1F780911A0190911B01019709F4DA
:1003D0004BC080911A0190911B01409709F450C0C5
:1003E0008091700190917101039739F7809112010A
:1003F000909113018B36924200F3809112019091FB
:100400001301449790931301809312010895E5E737
:10041000F1E0BFCF8730B1F08D3041F30895809186
:100420001A0190911B01019719F180911A01909185
:100430001B01409709F18091700190917101039720
:1004400009F0BBCF8091AA019091AB0186329A420C
:1004500008F0B3CF809112019091130144969093CC
:100460001301809312010895818181508183B8CF57
:1004700081818F5F8183DFCF82818F5F8283DBCF3A
:10048000828181508283ACCF482FE82FF0E099B36E
:10049000EE0FFF1FE358FE4F20813181220F331FE3
:1004A000306E892F90E002C0959587954A95E2F7C6
:1004B00081709927282B392B3183208381E02115E6
:1004C000304F09F080E008951F920F920FB60F92FF
:1004D00011240BB60F922F933F934F935F936F931B
:1004E0007F938F939F93AF93BF93EF93FF938091ED
:1004F00075018F5F80937501809175018C3360F079
:10050000809176018F5F80937601809176018C33A4
:1005100008F04DC010927501809173018C3338F052
:10052000809174018F5F80937401109273018091A8
:100530006F01882329F080916F01815080936F01B2
:1005400080917001909171010397B1F080917C01CD
:10055000882329F180910A0180930F0110927C0178
:100560009091690181E089278093690142E062EFFF
:1005700071E080E90E945009FF91EF91BF91AF9126
:100580009F918F917F916F915F914F913F912F91AB
:100590000F900BBE0F900FBE0F901F90189580917B
:1005A0000B0180930F0181E080937C01D9CF809172
:1005B00077018F5F8093770110927601ABCF1F9206
:1005C0000F920FB60F9211248F939F938D9A809163
:1005D0006801882321F080916901811108C012BA55
:1005E0009F918F910F900FBE0F901F90189592B30F
:1005F00080E2892782BB9F918F910F900FBE0F9051
:100600001F901895882321F080916F01882319F09D
:1006100010926801089589E0ECE1F1E0ACEAB1E004
:1006200001900D928A95E1F7909174018091770184
:100630009813EECF90917301809176019813E8CFD3
:100640008DE0E5E2F1E0ACEAB1E001900D928A952F
:10065000E1F781E08093680108951B9A139A129A3A
:100660001A9A8AB7806C8ABF89B7806889BF1F9839
:10067000179A1A9A8FE193E00197F1F700C00000F2
:100680001A9890EA9A95F1F7179808951F920F9289
:100690000FB60F9211240BB60F926F927F928F922A
:1006A0009F92AF92BF92CF92DF92EF92FF920F9301
:1006B0001F932F933F934F935F936F937F938F93EA
:1006C0009F93AF93BF93EF93FF93CF93DF931F92CB
:1006D000CDB7DEB71E981E9A1ABA8FEF8BBB80E794
:1006E00088BB0DE711E041E0612C712C72E0E72E30
:1006F000F12CEAE08E2E99249394AA24A394B12C91
:10070000A0E1CA2ED12C07C0483009F447C02FEF12
:10071000621A720A4F5F562D99B3F8012081318118
:10072000220F331F306E892F90E0062C02C0959562
:1007300087950A94E2F781709927822B932B8193F6
:1007400091938F018115904FF9F6533009F4F1C060
:1007500008F4E0C0563009F4FDC0573081F0553040
:1007600099F68091700190917101029709F43AC154
:10077000F0927101E092700180926F01C8CF2091D8
:1007800070013091710181E090E0232B09F0E8C005
:1007900090937101809370010E9483068091700193
:1007A000909171018130910509F404C108F4EAC007
:1007B0008230910509F4DAC00397F9F480910A01B7
:1007C00080930F012091120130911301ADECBCEC2C
:1007D0000E944C0C9695879596958795969587954A
:1007E00090936D0180936C0189E0EDE4F1E0ACEA57
:1007F000B1E001900D928A95E1F780917B010E9412
:100800000203809175018FB9779BFECFC09AC09883
:100810000FB1802F8F70F82E80937A0180916C0138
:1008200090916D010E94070110917901602F6C7009
:1008300070E07595679575956795812F8C70869595
:1008400086950E94BA01602F6370812F83700E9489
:10085000950180917701893110F010927701809194
:1008600076018C3310F010927601F092790180912C
:100870007801853010F0109278018FEF8ABBE091FB
:100880007801F0E0E35FFE4F80818BBB80917801BF
:100890008295807F88BB809178018F5F80937801FB
:1008A00040E150E065E971E08091140190911501FB
:1008B0000E94910C40E150E06CEA71E080911601D9
:1008C000909117010E94910C80EC91E00E943305F9
:1008D0000F90DF91CF91FF91EF91BF91AF919F91D9
:1008E0008F917F916F915F914F913F912F911F91C8
:1008F0000F91FF90EF90DF90CF90BF90AF909F90BF
:100900008F907F906F900F900BBE0F900FBE0F9047
:100910001F901895513041F0523009F0F5CEB09249
:100920001B01A0921A01F3CED0921B01C0921A01B2
:10093000EECE8091700190917101892BA1F080E041
:1009400090E0909371018093700149830E94830627
:100950004981DDCE80917B01892580937B01D7CEB3
:1009600080E090E015CF83E090E0EBCF109268013B
:1009700087E0E6E4F1E0ACEAB1E001900D928A95FF
:10098000E1F73BCF209177018091760190E064E61A
:10099000269F800D911D112490936D0180936C0111
:1009A0008AE0ECE3F1E0ACEAB1E001900D928A95C7
:1009B000E1F723CF209174018091730190E034E638
:1009C000239F800D911D112490936D0180936C01E4
:1009D0008AE0E2E3F1E0ACEAB1E001900D928A95A1
:1009E000E1F70BCF109271011092700110926F011C
:1009F0008ECE1F920F920FB60F9211248F939F935A
:100A000084B195B1969587959695879583BD369ACD
:100A10009F918F910F900FBE0F901F9018951F926E
:100A20000F920FB60F9211248F9381E080931A02D8
:100A30008F910F900FBE0F901F90189591E081112C
:100A400001C090E09FB9779BFECF6FB9779BFECF37
:100A50008091620088608093620080916200877F4D
:100A6000809362000895CF93C0918E018C0F911DE9
:100A7000FC016081611111C081E080938D0160E211
:100A800081E00E941E0581E08C0F80938E018031F1
:100A9000D1F0803251F0CF91089580918D01811174
:100AA000EECF81E00E941E05EECF85ED8A95F1F72D
:100AB000000060E880E00E941E0510928D011092F7
:100AC0008E01CF910895F5EDFA95F1F7000060ECF5
:100AD00080E00E941E0510928D01DDCFEF92FF9203
:100AE0000F931F93CF93DF931F92CDB7DEB7182FCD
:100AF000660F660F660F605C80E099830E941E059A
:100B000085ED8A95F1F70000E12E9981F92E870194
:100B1000085F1F4FF70161917F0181E00E941E0570
:100B2000F5EDFA95F1F70000E016F10699F70F9050
:100B3000DF91CF911F910F91FF90EF90089590E476
:100B4000899F600D1124605C80E00C941E05CF939A
:100B50008823B9F1C82F843698F48A30D8F48DEC04
:100B6000C89F812D11248695869586956C2F2AE045
:100B7000829F60191124605D81E0CF910C941E0565
:100B800069E2869F612D112462956F70605D81E03E
:100B90000E941E0589E2C89F812D112482958F70C5
:100BA0009C2F24E6829F901911246DEC969F612D55
:100BB0001124669566956695605D81E00E941E052C
:100BC000CECF60E381E0CF910C941E050F931F936D
:100BD000CF93DF93009709F45BC0EC018436910555
:100BE00028F58A30910508F05BC09E01ADECBCECA5
:100BF0000E944C0C96958795969587959695879526
:100C00009C01220F331F880F991F880F991F880F8F
:100C1000991F820F931FC81BD90B6C2F605D81E059
:100C2000DF91CF911F910F910C941E058C011695A9
:100C30000795169507959801ABE7B4E10E944C0C17
:100C40009695879560E3680F81E00E941E059801E4
:100C5000ABE7B4E10E944C0C9695879544E6489F1B
:100C60009001499F300D1124CE01821B930B9C01F2
:100C7000ADECBCEC0E944C0C9695879596958795AB
:100C80009695879560E3680F81E00E941E05ADCFC1
:100C900060E381E0DF91CF911F910F910C941E05CD
:100CA0008C011695079516950795D1CFCF9387FDA3
:100CB00003C0CF910C94A705C82F6DE281E00E947C
:100CC0001E0585ED8A95F1F700008C2F8195CF9157
:100CD0000C94A7056EE080E00C941E056CE080E0AB
:100CE0000C941E056EE180E00C941E0568E180E026
:100CF0000C941E05E2E6F0E08081886080838081AC
:100D0000877F8083089561E080E00E941E058FE167
:100D10009CE10197F1F700C00000089562E080E0D7
:100D20000E941E058FE697E10197F1F700C00000D1
:100D3000089560EC80E00C941E0560E880E00C945F
:100D40001E05CF93C0E160E281E00E941E0585EDA3
:100D50008A95F1F70000C150B1F7CF910895682F3F
:100D600081E00C941E050F931F93CF938C0140E0FC
:100D700050E0C0E0F801E40FF51F608181E00E94BF
:100D80001E0585ED8A95F1F70000CF5F4C2F50E0EE
:100D9000F80101900020E9F79F01201B310B225040
:100DA00031092417350730F7CF911F910F9108951E
:100DB0008FEF99EF0197F1F700C0000088E0809372
:100DC000610060E380E00E941E058FE59DE60197CB
:100DD000F1F700C0000060E380E00E941E058FE58F
:100DE0009DE60197F1F700C0000060E380E00E94FB
:100DF0001E058FE59DE60197F1F700C0000068E34E
:100E000080E00E941E058FE19EE40197F1F700C08B
:100E1000000068E080E00E941E058FE19EE40197DB
:100E2000F1F700C0000061E080E00E941E058FE144
:100E30009EE40197F1F700C0000066E080E00E94A8
:100E40001E058FE19EE40197F1F700C000006CE001
:100E500080E00E941E058FE19EE40197F1F700C03B
:100E6000000008958F929F92AF92BF92CF92DF922F
:100E7000EF92FF920F931F93CF93DF93CDB7DEB71F
:100E800069970FB6F894DEBF0FBECDBFF42E122FB8
:100E9000002359F04B015C018824B7FC839499240A
:100EA000AA24BB24082D97FD8FC0112309F484C008
:100EB0009E012F5F3F4F6901590188248A94810E5A
:100EC000912C3FEF831A930A8C0C9D1C2AE030E092
:100ED00040E050E00E94240CE62F2A8B3B8B4C8B89
:100EE0005D8B6A897B898C899D8920E32E0FF501B2
:100EF00021935F01E815F90549F7BB24B394B10EBE
:100F0000F601E10FF11D2EE220832AE030E040E0FF
:100F100050E00E94240CE62F2A8B3B8B4C8B5D8B80
:100F20006E8B7F8B888F998F6A897B898C899D894D
:100F300011E01B0DD601AB0DB11DE05DEC93B12EA0
:100F4000611571058105910501F7FF2061F0E11040
:100F500039C080E21F1538F4F601E10FF11D8083DE
:100F60001F5F1F11F9CF002331F0F601E10FF11DD2
:100F70008DE280831F5F1150F601E10FF11D60814A
:100F800081E00E941E0535ED3A95F1F70000111140
:100F9000F2CF69960FB6F894DEBF0FBECDBFDF91DA
:100FA000CF911F910F91FF90EF90DF90CF90BF9066
:100FB000AF909F908F900895B12C9E012F5F3F4F6F
:100FC0006901A3CF80E3C6CF909580957095619518
:100FD0007F4F8F4F9F4F69CF5F926F927F928F921B
:100FE0009F92AF92BF92CF92DF92EF92FF920F93B8
:100FF0001F93CF93DF93CDB7DEB761970FB6F89409
:10100000DEBF0FBECDBFA62E542E622E792E771CCA
:101010007724771CB72CC72CD12CEE27FF27EC198F
:10102000FD098E279F27FC01EC0DFD1D442309F4CB
:101030008EC0CE0101967C018C0188248A94840E96
:10104000912C9FEF891A990A8E0C9F1C6AE070E020
:10105000CF010E94100C262FE22FF72F805DD801C0
:101060008D938D01A815B90589F701E0050DD7010C
:10107000A50DB11D8EE28C936AE070E0CF010E9455
:10108000100C262FE22FF72F11E0100FD701A00F21
:10109000B11D805D8C93012F309771F7611015C0E1
:1010A000772039F011E0100FF701E00FF11D8DE20C
:1010B0008083AA2041F1812F90E02A2D30E0821711
:1010C00093070CF5B12C40E20CC0AA20A1F0812FAF
:1010D00090E02A2D30E02C193D09821793075CF42B
:1010E00040E31F5FF701E80FF91F4083812F90E075
:1010F00082179307B4F3BB2031F0F701E10FF11D24
:101100008DE280831F5F1150F701E10FF11D6081B7
:1011100081E00E941E0595ED9A95F1F700001111EE
:10112000F2CF61960FB6F894DEBF0FBECDBFDF9150
:10113000CF911F910F91FF90EF90DF90CF90BF90D4
:10114000AF909F908F907F906F905F90089500E098
:10115000CE0101967C0190CF1F920F920FB60F9295
:1011600011240BB60F922F933F938F939F93AF93BE
:10117000BF93EF93FF93E09171008E2F90E0FC01FD
:101180003897E135F105B0F0809171008093F4015A
:1011900084E080937400FF91EF91BF91AF919F9194
:1011A0008F913F912F910F900BBE0F900FBE0F901C
:1011B0001F901895EC5AFF4F0C94430C80918F01AF
:1011C000E091F501F091F601E80FF11D80917300B7
:1011D000808384E980937400DECF8091F70180934F
:1011E000730010928F0185E880937400D4CF8091B2
:1011F0008F019091F801891760F7E091F501F09166
:10120000F60191E0980F90938F01E80FF11D808116
:101210008093730085E880937400BDCF85EA809346
:101220007400B9CF20918F018091F80130E090E0F7
:10123000019728173907DCF485EC80937400ABCF55
:10124000E091F501F091F60180918F0121E0280FE6
:1012500020938F01E80FF11D8091730080838091AE
:10126000F80130E090E00197281739072CF385E862
:101270008093740090CF8091740081700895909154
:10128000740090FDFCCF8E7F8093F7017093F60180
:101290006093F5014093F80185EA80937400089506
:1012A0009091740090FDFCCF81608093F701709362
:1012B000F6016093F5014093F80185EA809374008C
:1012C00008958FEF80937300109271008CE08093EB
:1012D0007000089584E18093F90141E069EF71E0C5
:1012E00082E20E943F090E943B098111FCCF8FEAF4
:1012F00094E00197F1F700C0000041E06BE172E07B
:1013000082E20E9450090E943B098111FCCF80912A
:101310001B02089580E28093F9011092FA018091F6
:10132000AA019091AB019093FB018091AA01909149
:10133000AB018093FC011092FD0110921A0245E06E
:1013400069EF71E082E20E943F0980911A028823CE
:10135000E1F3089580E48093F9011092FA018091FD
:10136000A8019091A9019093FB018093FC01109238
:10137000FD011092FE0110921A0246E069EF71E041
:1013800082E20E943F0980911A028823E1F30895C6
:10139000E9EFF1E080E4808311828091BC019091BB
:1013A000BD0192838383148281E0858346E0BF017F
:1013B00082E20E943F092FEF87EE93E021508040A8
:1013C0009040E1F700C0000008958091660190917F
:1013D00067018130910551F100F1029741F460916C
:1013E000BC017091BD018EEB91E00E94920F609163
:1013F000A70180E991E00E94850F81E18093F901C6
:1014000041E069EF71E082E20E943F0987ED94E0DC
:101410000197F1F700C0000008956091AA01709152
:10142000AB0181E991E00E94920FE1CF6091A801A8
:101430007091A90185EA91E00E94920FD8CF83E2D2
:101440008093F90181E08093FA0142E069EF71E055
:1014500082E20E943F090E943B098111FCCF8FEA82
:1014600094E00197F1F700C0000048E062E072E00C
:1014700082E20E9450090E943B098111FCCF08952D
:1014800082E28093F90181E08093FA0142E069EF02
:1014900071E082E20E943F090E943B098111FCCF6A
:1014A0008FEA94E00197F1F700C0000048E062E0A5
:1014B00072E082E20E9450090E943B098111FCCF38
:1014C000089582E48093F90181E08093FA0142E07B
:1014D00069EF71E082E20E943F090E943B0981119D
:1014E000FCCF8FEA94E00197F1F700C0000048E0DC
:1014F00062E072E082E20C94500983E48093F90187
:1015000081E08093FA0142E069EF71E082E20E949B
:101510003F090E943B098111FCCF8FEA94E00197BB
:10152000F1F700C0000048E062E072E082E20C9453
:101530005009E9EFF1E022E1208311829283838355
:101540007483658346E0BF0182E20E943F098FE316
:101550009CE90197F1F700C00000089581E991E04E
:101560000E947F0F9093AB018093AA0180E991E0E4
:101570000E94770F8093A701E9EFF1E081E080837B
:1015800080E5818385E0828343E0BF0182E20E949F
:101590003F092FEF8BED95E0215080409040E1F71F
:1015A00000C0000061E070E081E090E00C94990AD6
:1015B00085EA91E00E947F0F9093A9018093A80192
:1015C00080E991E00E94770F8093A701E9EFF1E0B5
:1015D00081E0808381E5818385E0828343E0BF01F0
:1015E00082E20E943F092FEF8BED95E02150804071
:1015F0009040E1F700C0000061E070E081E090E021
:101600000C94990A8EEB91E00E947F0F9093BD019C
:101610008093BC0180E991E00E94770F8093A7013D
:10162000E9EFF1E081E0808381E5818385E08283D9
:1016300043E0BF0182E20E943F092FEF8BED95E06E
:10164000215080409040E1F700C0000060E070E071
:1016500082E093E30E94990A61E071E082E091E305
:101660000E94990A61E070E081E090E00C94990A90
:1016700087B3806F87BB80E482B987B7806487BFF8
:1016800085B5836385BD85B5886485BD87B7816071
:1016900087BF83B7856083BF80B7886080BF809134
:1016A0008B00816880938B0080918A008A60809390
:1016B0008A00139A8FE790E09093870080938600CA
:1016C00087B3876087BB8DB180658DB9709A8CE9CF
:1016D00090E09BBD8ABD87B7806187BF8EB58B6068
:1016E0008EBD87B1856487B986B18F6886B9369A11
:1016F0000E94D8060E9461090E942D0378940E94DE
:10170000AE0A80911201909113019093AB018093E6
:10171000AA010E948A0941E060EF71E080E90E941D
:101720003F0945E9E42E41E0F42E06E511E0E7012A
:1017300050E2D52E8091F20190E090939401809335
:1017400093018091930190919401982F8827909311
:101750009401809393018091930190919401209141
:10176000F301822B909394018093930180919301D4
:1017700090919401880F892F881F990B91959093D0
:101780006B0180936A0180916A0190916B019F9334
:101790008F931F930F93DF93CF930E94A00CF701B9
:1017A00001900020E9F73197E559F140E0936E018F
:1017B00080916E010F900F900F900F900F900F90EF
:1017C000803140F4E82FF0E0EB56FE4FD0828F5F7F
:1017D0008031C1F78091700190917101039751F0B0
:1017E0008091700190917101039709F4A3CF0E9439
:1017F000E509A0CF0E94AE0A8091120190911301D9
:101800009093AB018093AA010E948A099FEF21EE79
:1018100084E0915020408040E1F700C00000E0CF1C
:1018200097FB072E16F4009407D077FD09D00E948D
:101830005B0C07FC05D03EF4909581959F4F089571
:10184000709561957F4F0895052E97FB1EF40094C7
:101850000E943B0C57FD07D00E946F0C07FC03D081
:101860004EF40C943B0C50954095309521953F4F8C
:101870004F4F5F4F089590958095709561957F4F7C
:101880008F4F9F4F0895EE0FFF1F0024001C0BBECB
:101890000790F691E02D0994A29FB001B39FC0017B
:1018A000A39F700D811D1124911DB29F700D811D8C
:1018B0001124911D0895AA1BBB1B51E107C0AA1F4B
:1018C000BB1FA617B70710F0A61BB70B881F991FE1
:1018D0005A95A9F780959095BC01CD010895A1E294
:1018E0001A2EAA1BBB1BFD010DC0AA1FBB1FEE1F9A
:1018F000FF1FA217B307E407F50720F0A21BB30BE5
:10190000E40BF50B661F771F881F991F1A9469F760
:1019100060957095809590959B01AC01BD01CF01BC
:101920000895FB01DC014150504048F001900D92B8
:101930000020C9F701C01D9241505040E0F70895C2
:101940000F931F93CF93DF93CDB7DEB72E970FB6CC
:10195000F894DEBF0FBECDBF0D891E8986E08C8353
:101960001A8309838FEF9FE79E838D83AE01475EC5
:101970005F4F6F89788DCE0101960E94D00C2F8128
:101980003885F801E20FF31F10822E960FB6F894F7
:10199000DEBF0FBECDBFDF91CF911F910F91089594
:1019A0002F923F924F925F926F927F928F929F926F
:1019B000AF92BF92CF92DF92EF92FF920F931F935D
:1019C000CF93DF93CDB7DEB72C970FB6F894DEBF79
:1019D0000FBECDBF7C016B018A01FC01178216820C
:1019E000838181FFBDC1CE0101964C01F701938136
:1019F000F60193FD859193FF81916F01882309F48E
:101A0000ABC1853239F493FD859193FF81916F01CC
:101A1000853229F4B70190E00E94E10EE7CF512C06
:101A2000312C20E02032A0F48B3269F030F4803287
:101A300059F0833269F420612CC08D3239F0803343
:101A400039F4216026C02260246023C0286021C0B0
:101A500027FD27C030ED380F3A3078F426FF06C056
:101A6000FAE05F9E300D1124532E13C08AE0389E99
:101A7000300D1124332E20620CC08E3221F426FD4D
:101A80006BC1206406C08C3611F4206802C0883611
:101A900041F4F60193FD859193FF81916F018111CE
:101AA000C1CF982F9F7D9554933028F40C5F1F4F22
:101AB000FFE3F9830DC0833631F0833771F083354E
:101AC00009F05BC022C0F801808189830E5F1F4F3F
:101AD00044244394512C540115C03801F2E06F0E98
:101AE000711CF801A080B18026FF03C0652D70E055
:101AF00002C06FEF7FEFC5012C870E94D60E2C012C
:101B000083012C852F77222E17C03801F2E06F0E4B
:101B1000711CF801A080B18026FF03C0652D70E024
:101B200002C06FEF7FEFC5012C870E94CB0E2C0106
:101B30002C852068222E830123FC1BC0832D90E07E
:101B400048165906B0F4B70180E290E00E94E10E19
:101B50003A94F4CFF50127FC859127FE81915F012E
:101B6000B70190E00E94E10E31103A94F1E04F1A73
:101B700051084114510471F7E5C0843611F08936DB
:101B800039F5F80127FF07C0608171818281938157
:101B90000C5F1F4F08C060817181072E000C880BFD
:101BA000990B0E5F1F4F2F76722E97FF09C09095ED
:101BB0008095709561957F4F8F4F9F4F2068722E53
:101BC0002AE030E0A4010E94190FA82EA81844C0F2
:101BD000853729F42F7EB22E2AE030E025C0F22F7F
:101BE000F97FBF2E8F36C1F018F4883579F0B4C074
:101BF000803719F0883721F0AFC02F2F2061B22E27
:101C0000B4FE0DC08B2D8460B82E09C024FF0AC01D
:101C10009F2F9660B92E06C028E030E005C020E175
:101C200030E002C020E132E0F801B7FE07C0608179
:101C30007181828193810C5F1F4F06C06081718129
:101C400080E090E00E5F1F4FA4010E94190FA82EA4
:101C5000A818FB2DFF777F2E76FE0BC0372D3E7F19
:101C6000A51450F474FE0AC072FC08C0372D3E7EE5
:101C700005C0BA2C372D03C0BA2C01C0B52C34FFD7
:101C80000DC0FE01EA0DF11D8081803311F4397E13
:101C900009C032FF06C0B394B39404C0832F867882
:101CA00009F0B39433FD13C030FF06C05A2CB314AF
:101CB00018F4530C5B18B32CB31468F4B70180E22A
:101CC00090E03C870E94E10EB3943C85F5CFB314BD
:101CD00010F43B1801C0312C34FF12C0B70180E36F
:101CE00090E03C870E94E10E3C8532FF17C031FD39
:101CF00003C088E790E002C088E590E0B7010CC01F
:101D0000832F867859F031FF02C08BE201C080E258
:101D100037FD8DE2B70190E00E94E10EA51438F482
:101D2000B70180E390E00E94E10E5A94F7CFAA94A5
:101D3000F401EA0DF11D8081B70190E00E94E10EEF
:101D4000A110F5CF332009F451CEB70180E290E025
:101D50000E94E10E3A94F6CFF7018681978102C086
:101D60008FEF9FEF2C960FB6F894DEBF0FBECDBF5E
:101D7000DF91CF911F910F91FF90EF90DF90CF9067
:101D8000BF90AF909F908F907F906F905F904F909B
:101D90003F902F900895FC01059061507040011014
:101DA000D8F7809590958E0F9F1F0895FC01615084
:101DB000704001900110D8F7809590958E0F9F1F6D
:101DC00008950F931F93CF93DF93FB01238121FD90
:101DD00003C08FEF9FEF28C022FF16C046815781B6
:101DE000248135814217530744F4A081B1819D01BC
:101DF0002F5F3F4F318320838C93268137812F5F64
:101E00003F4F3783268310C0EB01092F182F008422
:101E1000F185E02D0995892BE1F68E819F81019650
:101E20009F838E83812F902FDF91CF911F910F91F0
:101E30000895FA01AA27283051F1203181F1E89460
:101E40006F936E7F6E5F7F4F8F4F9F4FAF4FB1E0AD
:101E50003ED0B4E03CD0670F781F891F9A1FA11DA8
:101E6000680F791F8A1F911DA11D6A0F711D811DA9
:101E7000911DA11D20D009F468943F912AE0269F6E
:101E800011243019305D3193DEF6CF010895462FCD
:101E90004770405D4193B3E00FD0C9F7F6CF462FAE
:101EA0004F70405D4A3318F0495D31FD4052419317
:101EB00002D0A9F7EACFB4E0A695979587957795D4
:101EC0006795BA95C9F700976105710508959B015B
:101ED000AC010A2E06945795479537952795BA95E4
:101EE000C9F7620F731F841F951FA01D0895E19904
:101EF000FECF9FBB8EBBE09A99278DB30895A8E1D2
:101F0000B0E042E050E00C94990F262FE199FECF0B
:101F10009FBB8EBB2DBB0FB6F894E29AE19A0FBE21
:101F2000019608950E94850F272F0C94860FDC01DF
:101F3000CB01FC01E199FECF06C0FFBBEEBBE09AEE
:101F400031960DB20D9241505040B8F70895F89473
:021F5000FFCFC1
:101F5200C0F9A4B0999282F88098FFFC7FFFFFFF3E
:101F6200FFFF0627D001C00110001000414C415272
:101F72004D3A4F4E0054494D4520544F205249533B
:101F8200450053455420414C41524D00414C415271
:101F92004D3A4F464600534E4F4F5A450052414428
:101FA200494F204F4E00494E3A256443DF4F555466
:061FB2003A203A5B00003A
:00000001FF
